{
  "contractName": "ProductVerification",
  "abi": [
    {
      "inputs": [],
      "stateMutability": "nonpayable",
      "type": "constructor"
    },
    {
      "inputs": [],
      "name": "owner",
      "outputs": [
        {
          "internalType": "address",
          "name": "",
          "type": "address"
        }
      ],
      "stateMutability": "view",
      "type": "function",
      "constant": true
    },
    {
      "inputs": [
        {
          "internalType": "string",
          "name": "",
          "type": "string"
        }
      ],
      "name": "products",
      "outputs": [
        {
          "internalType": "string",
          "name": "productId",
          "type": "string"
        },
        {
          "internalType": "bool",
          "name": "isAuthentic",
          "type": "bool"
        }
      ],
      "stateMutability": "view",
      "type": "function",
      "constant": true
    },
    {
      "inputs": [
        {
          "internalType": "string",
          "name": "_productId",
          "type": "string"
        },
        {
          "internalType": "bool",
          "name": "_isAuthentic",
          "type": "bool"
        }
      ],
      "name": "addProduct",
      "outputs": [],
      "stateMutability": "nonpayable",
      "type": "function"
    },
    {
      "inputs": [
        {
          "internalType": "string",
          "name": "_productId",
          "type": "string"
        }
      ],
      "name": "verifyProduct",
      "outputs": [
        {
          "internalType": "bool",
          "name": "",
          "type": "bool"
        }
      ],
      "stateMutability": "view",
      "type": "function",
      "constant": true
    }
  ],
  "bytecode": "0x608060405234801561000f575f80fd5b50335f806101000a81548173ffffffffffffffffffffffffffffffffffffffff021916908373ffffffffffffffffffffffffffffffffffffffff160217905550610a398061005c5f395ff3fe608060405234801561000f575f80fd5b506004361061004a575f3560e01c80630186a4231461004e5780638da5cb5b1461007f5780638e37de3a1461009d57806392efc453146100b9575b5f80fd5b61006860048036038101906100639190610455565b6100e9565b604051610076929190610530565b60405180910390f35b6100876101b3565b604051610094919061059d565b60405180910390f35b6100b760048036038101906100b291906105e0565b6101d6565b005b6100d360048036038101906100ce9190610455565b6102d2565b6040516100e0919061063a565b60405180910390f35b6001818051602081018201805184825260208301602085012081835280955050505050505f91509050805f01805461012090610680565b80601f016020809104026020016040519081016040528092919081815260200182805461014c90610680565b80156101975780601f1061016e57610100808354040283529160200191610197565b820191905f5260205f20905b81548152906001019060200180831161017a57829003601f168201915b505050505090806001015f9054906101000a900460ff16905082565b5f8054906101000a900473ffffffffffffffffffffffffffffffffffffffff1681565b5f8054906101000a900473ffffffffffffffffffffffffffffffffffffffff1673ffffffffffffffffffffffffffffffffffffffff163373ffffffffffffffffffffffffffffffffffffffff1614610263576040517f08c379a000000000000000000000000000000000000000000000000000000000815260040161025a90610720565b60405180910390fd5b604051806040016040528083815260200182151581525060018360405161028a9190610778565b90815260200160405180910390205f820151815f0190816102ab9190610934565b506020820151816001015f6101000a81548160ff0219169083151502179055509050505050565b5f6001826040516102e39190610778565b90815260200160405180910390206001015f9054906101000a900460ff169050919050565b5f604051905090565b5f80fd5b5f80fd5b5f80fd5b5f80fd5b5f601f19601f8301169050919050565b7f4e487b71000000000000000000000000000000000000000000000000000000005f52604160045260245ffd5b61036782610321565b810181811067ffffffffffffffff8211171561038657610385610331565b5b80604052505050565b5f610398610308565b90506103a4828261035e565b919050565b5f67ffffffffffffffff8211156103c3576103c2610331565b5b6103cc82610321565b9050602081019050919050565b828183375f83830152505050565b5f6103f96103f4846103a9565b61038f565b9050828152602081018484840111156104155761041461031d565b5b6104208482856103d9565b509392505050565b5f82601f83011261043c5761043b610319565b5b813561044c8482602086016103e7565b91505092915050565b5f6020828403121561046a57610469610311565b5b5f82013567ffffffffffffffff81111561048757610486610315565b5b61049384828501610428565b91505092915050565b5f81519050919050565b5f82825260208201905092915050565b5f5b838110156104d35780820151818401526020810190506104b8565b5f8484015250505050565b5f6104e88261049c565b6104f281856104a6565b93506105028185602086016104b6565b61050b81610321565b840191505092915050565b5f8115159050919050565b61052a81610516565b82525050565b5f6040820190508181035f83015261054881856104de565b90506105576020830184610521565b9392505050565b5f73ffffffffffffffffffffffffffffffffffffffff82169050919050565b5f6105878261055e565b9050919050565b6105978161057d565b82525050565b5f6020820190506105b05f83018461058e565b92915050565b6105bf81610516565b81146105c9575f80fd5b50565b5f813590506105da816105b6565b92915050565b5f80604083850312156105f6576105f5610311565b5b5f83013567ffffffffffffffff81111561061357610612610315565b5b61061f85828601610428565b9250506020610630858286016105cc565b9150509250929050565b5f60208201905061064d5f830184610521565b92915050565b7f4e487b71000000000000000000000000000000000000000000000000000000005f52602260045260245ffd5b5f600282049050600182168061069757607f821691505b6020821081036106aa576106a9610653565b5b50919050565b7f4f6e6c7920746865206f776e65722063616e20706572666f726d2074686973205f8201527f616374696f6e0000000000000000000000000000000000000000000000000000602082015250565b5f61070a6026836104a6565b9150610715826106b0565b604082019050919050565b5f6020820190508181035f830152610737816106fe565b9050919050565b5f81905092915050565b5f6107528261049c565b61075c818561073e565b935061076c8185602086016104b6565b80840191505092915050565b5f6107838284610748565b915081905092915050565b5f819050815f5260205f209050919050565b5f6020601f8301049050919050565b5f82821b905092915050565b5f600883026107ea7fffffffffffffffffffffffffffffffffffffffffffffffffffffffffffffffff826107af565b6107f486836107af565b95508019841693508086168417925050509392505050565b5f819050919050565b5f819050919050565b5f61083861083361082e8461080c565b610815565b61080c565b9050919050565b5f819050919050565b6108518361081e565b61086561085d8261083f565b8484546107bb565b825550505050565b5f90565b61087961086d565b610884818484610848565b505050565b5b818110156108a75761089c5f82610871565b60018101905061088a565b5050565b601f8211156108ec576108bd8161078e565b6108c6846107a0565b810160208510156108d5578190505b6108e96108e1856107a0565b830182610889565b50505b505050565b5f82821c905092915050565b5f61090c5f19846008026108f1565b1980831691505092915050565b5f61092483836108fd565b9150826002028217905092915050565b61093d8261049c565b67ffffffffffffffff81111561095657610955610331565b5b6109608254610680565b61096b8282856108ab565b5f60209050601f83116001811461099c575f841561098a578287015190505b6109948582610919565b8655506109fb565b601f1984166109aa8661078e565b5f5b828110156109d1578489015182556001820191506020850194506020810190506109ac565b868310156109ee57848901516109ea601f8916826108fd565b8355505b6001600288020188555050505b50505050505056fea264697066735822122072460eeb01c03ab2f180f74fbb726b44ed26683e5b53cbf82ab226f566f06f4864736f6c63430008140033",
  "immutableReferences": {},
  "source": "// SPDX-License-Identifier: MIT\npragma solidity ^0.8.0;\n\ncontract ProductVerification {\n    address public owner;\n\n    struct Product {\n        string productId;\n        bool isAuthentic;\n    }\n\n    mapping(string => Product) public products;\n\n    constructor() {\n        owner = msg.sender;\n    }\n\n    modifier onlyOwner() {\n        require(msg.sender == owner, \"Only the owner can perform this action\");\n        _;\n    }\n\n    function addProduct(string memory _productId, bool _isAuthentic) public onlyOwner {\n        products[_productId] = Product(_productId, _isAuthentic);\n    }\n\n    function verifyProduct(string memory _productId) public view returns (bool) {\n        return products[_productId].isAuthentic;\n    }\n}\n",
  "sourcePath": "C:\\Users\\zhans\\fake-product-verification\\contracts\\ProductVerification.sol",
  "compiler": {
    "name": "solc",
    "version": "0.8.20+commit.a1b79de6.Emscripten.clang"
  },
  "schemaVersion": "3.4.16",
  "updatedAt": "2025-05-21T10:05:28.013Z",
  "networkType": "ethereum",
  "devdoc": {
    "kind": "dev",
    "methods": {},
    "version": 1
  },
  "userdoc": {
    "kind": "user",
    "methods": {},
    "version": 1
  }
}